{
  "_format": "hh-sol-artifact-1",
  "contractName": "MyNFT",
  "sourceName": "contracts/MyNFT.sol",
  "abi": [
    {
      "inputs": [
        {
          "internalType": "string",
          "name": "name",
          "type": "string"
        },
        {
          "internalType": "string",
          "name": "symbol",
          "type": "string"
        }
      ],
      "stateMutability": "nonpayable",
      "type": "constructor"
    },
    {
      "anonymous": false,
      "inputs": [
        {
          "indexed": true,
          "internalType": "address",
          "name": "owner",
          "type": "address"
        },
        {
          "indexed": true,
          "internalType": "address",
          "name": "approved",
          "type": "address"
        },
        {
          "indexed": true,
          "internalType": "uint256",
          "name": "tokenId",
          "type": "uint256"
        }
      ],
      "name": "Approval",
      "type": "event"
    },
    {
      "anonymous": false,
      "inputs": [
        {
          "indexed": true,
          "internalType": "address",
          "name": "owner",
          "type": "address"
        },
        {
          "indexed": true,
          "internalType": "address",
          "name": "operator",
          "type": "address"
        },
        {
          "indexed": false,
          "internalType": "bool",
          "name": "approved",
          "type": "bool"
        }
      ],
      "name": "ApprovalForAll",
      "type": "event"
    },
    {
      "anonymous": false,
      "inputs": [
        {
          "indexed": true,
          "internalType": "address",
          "name": "previousOwner",
          "type": "address"
        },
        {
          "indexed": true,
          "internalType": "address",
          "name": "newOwner",
          "type": "address"
        }
      ],
      "name": "OwnershipTransferred",
      "type": "event"
    },
    {
      "anonymous": false,
      "inputs": [
        {
          "indexed": true,
          "internalType": "address",
          "name": "from",
          "type": "address"
        },
        {
          "indexed": true,
          "internalType": "address",
          "name": "to",
          "type": "address"
        },
        {
          "indexed": true,
          "internalType": "uint256",
          "name": "tokenId",
          "type": "uint256"
        }
      ],
      "name": "Transfer",
      "type": "event"
    },
    {
      "inputs": [
        {
          "internalType": "address",
          "name": "to",
          "type": "address"
        },
        {
          "internalType": "uint256",
          "name": "tokenId",
          "type": "uint256"
        }
      ],
      "name": "approve",
      "outputs": [],
      "stateMutability": "nonpayable",
      "type": "function"
    },
    {
      "inputs": [
        {
          "internalType": "address",
          "name": "owner",
          "type": "address"
        }
      ],
      "name": "balanceOf",
      "outputs": [
        {
          "internalType": "uint256",
          "name": "",
          "type": "uint256"
        }
      ],
      "stateMutability": "view",
      "type": "function"
    },
    {
      "inputs": [
        {
          "internalType": "uint256",
          "name": "tokenId",
          "type": "uint256"
        }
      ],
      "name": "burn",
      "outputs": [],
      "stateMutability": "nonpayable",
      "type": "function"
    },
    {
      "inputs": [],
      "name": "currentTokenId",
      "outputs": [
        {
          "internalType": "uint256",
          "name": "",
          "type": "uint256"
        }
      ],
      "stateMutability": "view",
      "type": "function"
    },
    {
      "inputs": [
        {
          "internalType": "uint256",
          "name": "tokenId",
          "type": "uint256"
        }
      ],
      "name": "getApproved",
      "outputs": [
        {
          "internalType": "address",
          "name": "",
          "type": "address"
        }
      ],
      "stateMutability": "view",
      "type": "function"
    },
    {
      "inputs": [
        {
          "internalType": "address",
          "name": "owner",
          "type": "address"
        },
        {
          "internalType": "address",
          "name": "operator",
          "type": "address"
        }
      ],
      "name": "isApprovedForAll",
      "outputs": [
        {
          "internalType": "bool",
          "name": "",
          "type": "bool"
        }
      ],
      "stateMutability": "view",
      "type": "function"
    },
    {
      "inputs": [
        {
          "internalType": "address",
          "name": "recipient",
          "type": "address"
        },
        {
          "internalType": "string",
          "name": "tokenURI",
          "type": "string"
        }
      ],
      "name": "mintNFT",
      "outputs": [],
      "stateMutability": "nonpayable",
      "type": "function"
    },
    {
      "inputs": [],
      "name": "name",
      "outputs": [
        {
          "internalType": "string",
          "name": "",
          "type": "string"
        }
      ],
      "stateMutability": "view",
      "type": "function"
    },
    {
      "inputs": [],
      "name": "owner",
      "outputs": [
        {
          "internalType": "address",
          "name": "",
          "type": "address"
        }
      ],
      "stateMutability": "view",
      "type": "function"
    },
    {
      "inputs": [
        {
          "internalType": "uint256",
          "name": "tokenId",
          "type": "uint256"
        }
      ],
      "name": "ownerOf",
      "outputs": [
        {
          "internalType": "address",
          "name": "",
          "type": "address"
        }
      ],
      "stateMutability": "view",
      "type": "function"
    },
    {
      "inputs": [],
      "name": "renounceOwnership",
      "outputs": [],
      "stateMutability": "nonpayable",
      "type": "function"
    },
    {
      "inputs": [
        {
          "internalType": "address",
          "name": "from",
          "type": "address"
        },
        {
          "internalType": "address",
          "name": "to",
          "type": "address"
        },
        {
          "internalType": "uint256",
          "name": "tokenId",
          "type": "uint256"
        }
      ],
      "name": "safeTransferFrom",
      "outputs": [],
      "stateMutability": "nonpayable",
      "type": "function"
    },
    {
      "inputs": [
        {
          "internalType": "address",
          "name": "from",
          "type": "address"
        },
        {
          "internalType": "address",
          "name": "to",
          "type": "address"
        },
        {
          "internalType": "uint256",
          "name": "tokenId",
          "type": "uint256"
        },
        {
          "internalType": "bytes",
          "name": "data",
          "type": "bytes"
        }
      ],
      "name": "safeTransferFrom",
      "outputs": [],
      "stateMutability": "nonpayable",
      "type": "function"
    },
    {
      "inputs": [
        {
          "internalType": "address",
          "name": "operator",
          "type": "address"
        },
        {
          "internalType": "bool",
          "name": "approved",
          "type": "bool"
        }
      ],
      "name": "setApprovalForAll",
      "outputs": [],
      "stateMutability": "nonpayable",
      "type": "function"
    },
    {
      "inputs": [
        {
          "internalType": "bytes4",
          "name": "interfaceId",
          "type": "bytes4"
        }
      ],
      "name": "supportsInterface",
      "outputs": [
        {
          "internalType": "bool",
          "name": "",
          "type": "bool"
        }
      ],
      "stateMutability": "view",
      "type": "function"
    },
    {
      "inputs": [],
      "name": "symbol",
      "outputs": [
        {
          "internalType": "string",
          "name": "",
          "type": "string"
        }
      ],
      "stateMutability": "view",
      "type": "function"
    },
    {
      "inputs": [
        {
          "internalType": "uint256",
          "name": "tokenId",
          "type": "uint256"
        }
      ],
      "name": "tokenURI",
      "outputs": [
        {
          "internalType": "string",
          "name": "",
          "type": "string"
        }
      ],
      "stateMutability": "view",
      "type": "function"
    },
    {
      "inputs": [
        {
          "internalType": "address",
          "name": "from",
          "type": "address"
        },
        {
          "internalType": "address",
          "name": "to",
          "type": "address"
        },
        {
          "internalType": "uint256",
          "name": "tokenId",
          "type": "uint256"
        }
      ],
      "name": "transferFrom",
      "outputs": [],
      "stateMutability": "nonpayable",
      "type": "function"
    },
    {
      "inputs": [
        {
          "internalType": "address",
          "name": "newOwner",
          "type": "address"
        }
      ],
      "name": "transferOwnership",
      "outputs": [],
      "stateMutability": "nonpayable",
      "type": "function"
    }
  ],
  "bytecode": "0x60806040523480156200001157600080fd5b5060405162003974380380620039748339818101604052810190620000379190620002e6565b8181620000596200004d6200008760201b60201c565b6200008f60201b60201c565b81600190816200006a9190620005b6565b5080600290816200007c9190620005b6565b50505050506200069d565b600033905090565b60008060009054906101000a900473ffffffffffffffffffffffffffffffffffffffff169050816000806101000a81548173ffffffffffffffffffffffffffffffffffffffff021916908373ffffffffffffffffffffffffffffffffffffffff1602179055508173ffffffffffffffffffffffffffffffffffffffff168173ffffffffffffffffffffffffffffffffffffffff167f8be0079c531659141344cd1fd0a4f28419497f9722a3daafe3b4186f6b6457e060405160405180910390a35050565b6000604051905090565b600080fd5b600080fd5b600080fd5b600080fd5b6000601f19601f8301169050919050565b7f4e487b7100000000000000000000000000000000000000000000000000000000600052604160045260246000fd5b620001bc8262000171565b810181811067ffffffffffffffff82111715620001de57620001dd62000182565b5b80604052505050565b6000620001f362000153565b9050620002018282620001b1565b919050565b600067ffffffffffffffff82111562000224576200022362000182565b5b6200022f8262000171565b9050602081019050919050565b60005b838110156200025c5780820151818401526020810190506200023f565b60008484015250505050565b60006200027f620002798462000206565b620001e7565b9050828152602081018484840111156200029e576200029d6200016c565b5b620002ab8482856200023c565b509392505050565b600082601f830112620002cb57620002ca62000167565b5b8151620002dd84826020860162000268565b91505092915050565b600080604083850312156200030057620002ff6200015d565b5b600083015167ffffffffffffffff81111562000321576200032062000162565b5b6200032f85828601620002b3565b925050602083015167ffffffffffffffff81111562000353576200035262000162565b5b6200036185828601620002b3565b9150509250929050565b600081519050919050565b7f4e487b7100000000000000000000000000000000000000000000000000000000600052602260045260246000fd5b60006002820490506001821680620003be57607f821691505b602082108103620003d457620003d362000376565b5b50919050565b60008190508160005260206000209050919050565b60006020601f8301049050919050565b600082821b905092915050565b6000600883026200043e7fffffffffffffffffffffffffffffffffffffffffffffffffffffffffffffffff82620003ff565b6200044a8683620003ff565b95508019841693508086168417925050509392505050565b6000819050919050565b6000819050919050565b600062000497620004916200048b8462000462565b6200046c565b62000462565b9050919050565b6000819050919050565b620004b38362000476565b620004cb620004c2826200049e565b8484546200040c565b825550505050565b600090565b620004e2620004d3565b620004ef818484620004a8565b505050565b5b8181101562000517576200050b600082620004d8565b600181019050620004f5565b5050565b601f82111562000566576200053081620003da565b6200053b84620003ef565b810160208510156200054b578190505b620005636200055a85620003ef565b830182620004f4565b50505b505050565b600082821c905092915050565b60006200058b600019846008026200056b565b1980831691505092915050565b6000620005a6838362000578565b9150826002028217905092915050565b620005c1826200036b565b67ffffffffffffffff811115620005dd57620005dc62000182565b5b620005e98254620003a5565b620005f68282856200051b565b600060209050601f8311600181146200062e576000841562000619578287015190505b62000625858262000598565b86555062000695565b601f1984166200063e86620003da565b60005b82811015620006685784890151825560018201915060208501945060208101905062000641565b8683101562000688578489015162000684601f89168262000578565b8355505b6001600288020188555050505b505050505050565b6132c780620006ad6000396000f3fe608060405234801561001057600080fd5b50600436106101205760003560e01c806370a08231116100ad578063b88d4fde11610071578063b88d4fde146102f3578063c87b56dd1461030f578063e985e9c51461033f578063eacabe141461036f578063f2fde38b1461038b57610120565b806370a0823114610261578063715018a6146102915780638da5cb5b1461029b57806395d89b41146102b9578063a22cb465146102d757610120565b8063095ea7b3116100f4578063095ea7b3146101c157806323b872dd146101dd57806342842e0e146101f957806342966c68146102155780636352211e1461023157610120565b80629a9b7b1461012557806301ffc9a71461014357806306fdde0314610173578063081812fc14610191575b600080fd5b61012d6103a7565b60405161013a9190611f3c565b60405180910390f35b61015d60048036038101906101589190611fc3565b6103b8565b60405161016a919061200b565b60405180910390f35b61017b61049a565b60405161018891906120b6565b60405180910390f35b6101ab60048036038101906101a69190612104565b61052c565b6040516101b89190612172565b60405180910390f35b6101db60048036038101906101d691906121b9565b610572565b005b6101f760048036038101906101f291906121f9565b610689565b005b610213600480360381019061020e91906121f9565b6106e9565b005b61022f600480360381019061022a9190612104565b610709565b005b61024b60048036038101906102469190612104565b61078b565b6040516102589190612172565b60405180910390f35b61027b6004803603810190610276919061224c565b610811565b6040516102889190611f3c565b60405180910390f35b6102996108c8565b005b6102a36108dc565b6040516102b09190612172565b60405180910390f35b6102c1610905565b6040516102ce91906120b6565b60405180910390f35b6102f160048036038101906102ec91906122a5565b610997565b005b61030d6004803603810190610308919061241a565b6109ad565b005b61032960048036038101906103249190612104565b610a0f565b60405161033691906120b6565b60405180910390f35b6103596004803603810190610354919061249d565b610b21565b604051610366919061200b565b60405180910390f35b6103896004803603810190610384919061257e565b610bb5565b005b6103a560048036038101906103a0919061224c565b610be6565b005b60006103b36008610c69565b905090565b60007f80ac58cd000000000000000000000000000000000000000000000000000000007bffffffffffffffffffffffffffffffffffffffffffffffffffffffff1916827bffffffffffffffffffffffffffffffffffffffffffffffffffffffff1916148061048357507f5b5e139f000000000000000000000000000000000000000000000000000000007bffffffffffffffffffffffffffffffffffffffffffffffffffffffff1916827bffffffffffffffffffffffffffffffffffffffffffffffffffffffff1916145b80610493575061049282610c77565b5b9050919050565b6060600180546104a990612609565b80601f01602080910402602001604051908101604052809291908181526020018280546104d590612609565b80156105225780601f106104f757610100808354040283529160200191610522565b820191906000526020600020905b81548152906001019060200180831161050557829003601f168201915b5050505050905090565b600061053782610ce1565b6005600083815260200190815260200160002060009054906101000a900473ffffffffffffffffffffffffffffffffffffffff169050919050565b600061057d8261078b565b90508073ffffffffffffffffffffffffffffffffffffffff168373ffffffffffffffffffffffffffffffffffffffff16036105ed576040517f08c379a00000000000000000000000000000000000000000000000000000000081526004016105e4906126ac565b60405180910390fd5b8073ffffffffffffffffffffffffffffffffffffffff1661060c610d2c565b73ffffffffffffffffffffffffffffffffffffffff16148061063b575061063a81610635610d2c565b610b21565b5b61067a576040517f08c379a00000000000000000000000000000000000000000000000000000000081526004016106719061273e565b60405180910390fd5b6106848383610d34565b505050565b61069a610694610d2c565b82610ded565b6106d9576040517f08c379a00000000000000000000000000000000000000000000000000000000081526004016106d0906127d0565b60405180910390fd5b6106e4838383610e82565b505050565b610704838383604051806020016040528060008152506109ad565b505050565b3373ffffffffffffffffffffffffffffffffffffffff166107298261078b565b73ffffffffffffffffffffffffffffffffffffffff161461077f576040517f08c379a000000000000000000000000000000000000000000000000000000000815260040161077690612862565b60405180910390fd5b6107888161117b565b50565b60008061079783611187565b9050600073ffffffffffffffffffffffffffffffffffffffff168173ffffffffffffffffffffffffffffffffffffffff1603610808576040517f08c379a00000000000000000000000000000000000000000000000000000000081526004016107ff906128ce565b60405180910390fd5b80915050919050565b60008073ffffffffffffffffffffffffffffffffffffffff168273ffffffffffffffffffffffffffffffffffffffff1603610881576040517f08c379a000000000000000000000000000000000000000000000000000000000815260040161087890612960565b60405180910390fd5b600460008373ffffffffffffffffffffffffffffffffffffffff1673ffffffffffffffffffffffffffffffffffffffff168152602001908152602001600020549050919050565b6108d06111c4565b6108da6000611242565b565b60008060009054906101000a900473ffffffffffffffffffffffffffffffffffffffff16905090565b60606002805461091490612609565b80601f016020809104026020016040519081016040528092919081815260200182805461094090612609565b801561098d5780601f106109625761010080835404028352916020019161098d565b820191906000526020600020905b81548152906001019060200180831161097057829003601f168201915b5050505050905090565b6109a96109a2610d2c565b8383611306565b5050565b6109be6109b8610d2c565b83610ded565b6109fd576040517f08c379a00000000000000000000000000000000000000000000000000000000081526004016109f4906127d0565b60405180910390fd5b610a0984848484611472565b50505050565b6060610a1a82610ce1565b6000600760008481526020019081526020016000208054610a3a90612609565b80601f0160208091040260200160405190810160405280929190818152602001828054610a6690612609565b8015610ab35780601f10610a8857610100808354040283529160200191610ab3565b820191906000526020600020905b815481529060010190602001808311610a9657829003601f168201915b505050505090506000610ac46114ce565b90506000815103610ad9578192505050610b1c565b600082511115610b0e578082604051602001610af69291906129bc565b60405160208183030381529060405292505050610b1c565b610b17846114e5565b925050505b919050565b6000600660008473ffffffffffffffffffffffffffffffffffffffff1673ffffffffffffffffffffffffffffffffffffffff16815260200190815260200160002060008373ffffffffffffffffffffffffffffffffffffffff1673ffffffffffffffffffffffffffffffffffffffff16815260200190815260200160002060009054906101000a900460ff16905092915050565b610bbf600861154d565b6000610bcb6008610c69565b9050610bd78382611563565b610be18183611780565b505050565b610bee6111c4565b600073ffffffffffffffffffffffffffffffffffffffff168173ffffffffffffffffffffffffffffffffffffffff1603610c5d576040517f08c379a0000000000000000000000000000000000000000000000000000000008152600401610c5490612a52565b60405180910390fd5b610c6681611242565b50565b600081600001549050919050565b60007f01ffc9a7000000000000000000000000000000000000000000000000000000007bffffffffffffffffffffffffffffffffffffffffffffffffffffffff1916827bffffffffffffffffffffffffffffffffffffffffffffffffffffffff1916149050919050565b610cea816117ed565b610d29576040517f08c379a0000000000000000000000000000000000000000000000000000000008152600401610d20906128ce565b60405180910390fd5b50565b600033905090565b816005600083815260200190815260200160002060006101000a81548173ffffffffffffffffffffffffffffffffffffffff021916908373ffffffffffffffffffffffffffffffffffffffff160217905550808273ffffffffffffffffffffffffffffffffffffffff16610da78361078b565b73ffffffffffffffffffffffffffffffffffffffff167f8c5be1e5ebec7d5bd14f71427d1e84f3dd0314c0f7b2291e5b200ac8c7c3b92560405160405180910390a45050565b600080610df98361078b565b90508073ffffffffffffffffffffffffffffffffffffffff168473ffffffffffffffffffffffffffffffffffffffff161480610e3b5750610e3a8185610b21565b5b80610e7957508373ffffffffffffffffffffffffffffffffffffffff16610e618461052c565b73ffffffffffffffffffffffffffffffffffffffff16145b91505092915050565b8273ffffffffffffffffffffffffffffffffffffffff16610ea28261078b565b73ffffffffffffffffffffffffffffffffffffffff1614610ef8576040517f08c379a0000000000000000000000000000000000000000000000000000000008152600401610eef90612ae4565b60405180910390fd5b600073ffffffffffffffffffffffffffffffffffffffff168273ffffffffffffffffffffffffffffffffffffffff1603610f67576040517f08c379a0000000000000000000000000000000000000000000000000000000008152600401610f5e90612b76565b60405180910390fd5b610f74838383600161182e565b8273ffffffffffffffffffffffffffffffffffffffff16610f948261078b565b73ffffffffffffffffffffffffffffffffffffffff1614610fea576040517f08c379a0000000000000000000000000000000000000000000000000000000008152600401610fe190612ae4565b60405180910390fd5b6005600082815260200190815260200160002060006101000a81549073ffffffffffffffffffffffffffffffffffffffff02191690556001600460008573ffffffffffffffffffffffffffffffffffffffff1673ffffffffffffffffffffffffffffffffffffffff168152602001908152602001600020600082825403925050819055506001600460008473ffffffffffffffffffffffffffffffffffffffff1673ffffffffffffffffffffffffffffffffffffffff16815260200190815260200160002060008282540192505081905550816003600083815260200190815260200160002060006101000a81548173ffffffffffffffffffffffffffffffffffffffff021916908373ffffffffffffffffffffffffffffffffffffffff160217905550808273ffffffffffffffffffffffffffffffffffffffff168473ffffffffffffffffffffffffffffffffffffffff167fddf252ad1be2c89b69c2b068fc378daa952ba7f163c4a11628f55a4df523b3ef60405160405180910390a46111768383836001611954565b505050565b6111848161195a565b50565b60006003600083815260200190815260200160002060009054906101000a900473ffffffffffffffffffffffffffffffffffffffff169050919050565b6111cc610d2c565b73ffffffffffffffffffffffffffffffffffffffff166111ea6108dc565b73ffffffffffffffffffffffffffffffffffffffff1614611240576040517f08c379a000000000000000000000000000000000000000000000000000000000815260040161123790612be2565b60405180910390fd5b565b60008060009054906101000a900473ffffffffffffffffffffffffffffffffffffffff169050816000806101000a81548173ffffffffffffffffffffffffffffffffffffffff021916908373ffffffffffffffffffffffffffffffffffffffff1602179055508173ffffffffffffffffffffffffffffffffffffffff168173ffffffffffffffffffffffffffffffffffffffff167f8be0079c531659141344cd1fd0a4f28419497f9722a3daafe3b4186f6b6457e060405160405180910390a35050565b8173ffffffffffffffffffffffffffffffffffffffff168373ffffffffffffffffffffffffffffffffffffffff1603611374576040517f08c379a000000000000000000000000000000000000000000000000000000000815260040161136b90612c4e565b60405180910390fd5b80600660008573ffffffffffffffffffffffffffffffffffffffff1673ffffffffffffffffffffffffffffffffffffffff16815260200190815260200160002060008473ffffffffffffffffffffffffffffffffffffffff1673ffffffffffffffffffffffffffffffffffffffff16815260200190815260200160002060006101000a81548160ff0219169083151502179055508173ffffffffffffffffffffffffffffffffffffffff168373ffffffffffffffffffffffffffffffffffffffff167f17307eab39ab6107e8899845ad3d59bd9653f200f220920489ca2b5937696c3183604051611465919061200b565b60405180910390a3505050565b61147d848484610e82565b611489848484846119ad565b6114c8576040517f08c379a00000000000000000000000000000000000000000000000000000000081526004016114bf90612ce0565b60405180910390fd5b50505050565b606060405180602001604052806000815250905090565b60606114f082610ce1565b60006114fa6114ce565b9050600081511161151a5760405180602001604052806000815250611545565b8061152484611b34565b6040516020016115359291906129bc565b6040516020818303038152906040525b915050919050565b6001816000016000828254019250508190555050565b600073ffffffffffffffffffffffffffffffffffffffff168273ffffffffffffffffffffffffffffffffffffffff16036115d2576040517f08c379a00000000000000000000000000000000000000000000000000000000081526004016115c990612d4c565b60405180910390fd5b6115db816117ed565b1561161b576040517f08c379a000000000000000000000000000000000000000000000000000000000815260040161161290612db8565b60405180910390fd5b61162960008383600161182e565b611632816117ed565b15611672576040517f08c379a000000000000000000000000000000000000000000000000000000000815260040161166990612db8565b60405180910390fd5b6001600460008473ffffffffffffffffffffffffffffffffffffffff1673ffffffffffffffffffffffffffffffffffffffff16815260200190815260200160002060008282540192505081905550816003600083815260200190815260200160002060006101000a81548173ffffffffffffffffffffffffffffffffffffffff021916908373ffffffffffffffffffffffffffffffffffffffff160217905550808273ffffffffffffffffffffffffffffffffffffffff16600073ffffffffffffffffffffffffffffffffffffffff167fddf252ad1be2c89b69c2b068fc378daa952ba7f163c4a11628f55a4df523b3ef60405160405180910390a461177c600083836001611954565b5050565b611789826117ed565b6117c8576040517f08c379a00000000000000000000000000000000000000000000000000000000081526004016117bf90612e4a565b60405180910390fd5b806007600084815260200190815260200160002090816117e89190613016565b505050565b60008073ffffffffffffffffffffffffffffffffffffffff1661180f83611187565b73ffffffffffffffffffffffffffffffffffffffff1614159050919050565b600181111561194e57600073ffffffffffffffffffffffffffffffffffffffff168473ffffffffffffffffffffffffffffffffffffffff16146118c25780600460008673ffffffffffffffffffffffffffffffffffffffff1673ffffffffffffffffffffffffffffffffffffffff16815260200190815260200160002060008282546118ba9190613117565b925050819055505b600073ffffffffffffffffffffffffffffffffffffffff168373ffffffffffffffffffffffffffffffffffffffff161461194d5780600460008573ffffffffffffffffffffffffffffffffffffffff1673ffffffffffffffffffffffffffffffffffffffff1681526020019081526020016000206000828254611945919061314b565b925050819055505b5b50505050565b50505050565b61196381611c02565b600060076000838152602001908152602001600020805461198390612609565b9050146119aa576007600082815260200190815260200160002060006119a99190611ec6565b5b50565b60006119ce8473ffffffffffffffffffffffffffffffffffffffff16611d50565b15611b27578373ffffffffffffffffffffffffffffffffffffffff1663150b7a026119f7610d2c565b8786866040518563ffffffff1660e01b8152600401611a1994939291906131d4565b6020604051808303816000875af1925050508015611a5557506040513d601f19601f82011682018060405250810190611a529190613235565b60015b611ad7573d8060008114611a85576040519150601f19603f3d011682016040523d82523d6000602084013e611a8a565b606091505b506000815103611acf576040517f08c379a0000000000000000000000000000000000000000000000000000000008152600401611ac690612ce0565b60405180910390fd5b805181602001fd5b63150b7a0260e01b7bffffffffffffffffffffffffffffffffffffffffffffffffffffffff1916817bffffffffffffffffffffffffffffffffffffffffffffffffffffffff191614915050611b2c565b600190505b949350505050565b606060006001611b4384611d73565b01905060008167ffffffffffffffff811115611b6257611b616122ef565b5b6040519080825280601f01601f191660200182016040528015611b945781602001600182028036833780820191505090505b509050600082602001820190505b600115611bf7578080600190039150507f3031323334353637383961626364656600000000000000000000000000000000600a86061a8153600a8581611beb57611bea613262565b5b04945060008503611ba2575b819350505050919050565b6000611c0d8261078b565b9050611c1d81600084600161182e565b611c268261078b565b90506005600083815260200190815260200160002060006101000a81549073ffffffffffffffffffffffffffffffffffffffff02191690556001600460008373ffffffffffffffffffffffffffffffffffffffff1673ffffffffffffffffffffffffffffffffffffffff168152602001908152602001600020600082825403925050819055506003600083815260200190815260200160002060006101000a81549073ffffffffffffffffffffffffffffffffffffffff021916905581600073ffffffffffffffffffffffffffffffffffffffff168273ffffffffffffffffffffffffffffffffffffffff167fddf252ad1be2c89b69c2b068fc378daa952ba7f163c4a11628f55a4df523b3ef60405160405180910390a4611d4c816000846001611954565b5050565b6000808273ffffffffffffffffffffffffffffffffffffffff163b119050919050565b600080600090507a184f03e93ff9f4daa797ed6e38ed64bf6a1f0100000000000000008310611dd1577a184f03e93ff9f4daa797ed6e38ed64bf6a1f0100000000000000008381611dc757611dc6613262565b5b0492506040810190505b6d04ee2d6d415b85acef81000000008310611e0e576d04ee2d6d415b85acef81000000008381611e0457611e03613262565b5b0492506020810190505b662386f26fc100008310611e3d57662386f26fc100008381611e3357611e32613262565b5b0492506010810190505b6305f5e1008310611e66576305f5e1008381611e5c57611e5b613262565b5b0492506008810190505b6127108310611e8b576127108381611e8157611e80613262565b5b0492506004810190505b60648310611eae5760648381611ea457611ea3613262565b5b0492506002810190505b600a8310611ebd576001810190505b80915050919050565b508054611ed290612609565b6000825580601f10611ee45750611f03565b601f016020900490600052602060002090810190611f029190611f06565b5b50565b5b80821115611f1f576000816000905550600101611f07565b5090565b6000819050919050565b611f3681611f23565b82525050565b6000602082019050611f516000830184611f2d565b92915050565b6000604051905090565b600080fd5b600080fd5b60007fffffffff0000000000000000000000000000000000000000000000000000000082169050919050565b611fa081611f6b565b8114611fab57600080fd5b50565b600081359050611fbd81611f97565b92915050565b600060208284031215611fd957611fd8611f61565b5b6000611fe784828501611fae565b91505092915050565b60008115159050919050565b61200581611ff0565b82525050565b60006020820190506120206000830184611ffc565b92915050565b600081519050919050565b600082825260208201905092915050565b60005b83811015612060578082015181840152602081019050612045565b60008484015250505050565b6000601f19601f8301169050919050565b600061208882612026565b6120928185612031565b93506120a2818560208601612042565b6120ab8161206c565b840191505092915050565b600060208201905081810360008301526120d0818461207d565b905092915050565b6120e181611f23565b81146120ec57600080fd5b50565b6000813590506120fe816120d8565b92915050565b60006020828403121561211a57612119611f61565b5b6000612128848285016120ef565b91505092915050565b600073ffffffffffffffffffffffffffffffffffffffff82169050919050565b600061215c82612131565b9050919050565b61216c81612151565b82525050565b60006020820190506121876000830184612163565b92915050565b61219681612151565b81146121a157600080fd5b50565b6000813590506121b38161218d565b92915050565b600080604083850312156121d0576121cf611f61565b5b60006121de858286016121a4565b92505060206121ef858286016120ef565b9150509250929050565b60008060006060848603121561221257612211611f61565b5b6000612220868287016121a4565b9350506020612231868287016121a4565b9250506040612242868287016120ef565b9150509250925092565b60006020828403121561226257612261611f61565b5b6000612270848285016121a4565b91505092915050565b61228281611ff0565b811461228d57600080fd5b50565b60008135905061229f81612279565b92915050565b600080604083850312156122bc576122bb611f61565b5b60006122ca858286016121a4565b92505060206122db85828601612290565b9150509250929050565b600080fd5b600080fd5b7f4e487b7100000000000000000000000000000000000000000000000000000000600052604160045260246000fd5b6123278261206c565b810181811067ffffffffffffffff82111715612346576123456122ef565b5b80604052505050565b6000612359611f57565b9050612365828261231e565b919050565b600067ffffffffffffffff821115612385576123846122ef565b5b61238e8261206c565b9050602081019050919050565b82818337600083830152505050565b60006123bd6123b88461236a565b61234f565b9050828152602081018484840111156123d9576123d86122ea565b5b6123e484828561239b565b509392505050565b600082601f830112612401576124006122e5565b5b81356124118482602086016123aa565b91505092915050565b6000806000806080858703121561243457612433611f61565b5b6000612442878288016121a4565b9450506020612453878288016121a4565b9350506040612464878288016120ef565b925050606085013567ffffffffffffffff81111561248557612484611f66565b5b612491878288016123ec565b91505092959194509250565b600080604083850312156124b4576124b3611f61565b5b60006124c2858286016121a4565b92505060206124d3858286016121a4565b9150509250929050565b600067ffffffffffffffff8211156124f8576124f76122ef565b5b6125018261206c565b9050602081019050919050565b600061252161251c846124dd565b61234f565b90508281526020810184848401111561253d5761253c6122ea565b5b61254884828561239b565b509392505050565b600082601f830112612565576125646122e5565b5b813561257584826020860161250e565b91505092915050565b6000806040838503121561259557612594611f61565b5b60006125a3858286016121a4565b925050602083013567ffffffffffffffff8111156125c4576125c3611f66565b5b6125d085828601612550565b9150509250929050565b7f4e487b7100000000000000000000000000000000000000000000000000000000600052602260045260246000fd5b6000600282049050600182168061262157607f821691505b602082108103612634576126336125da565b5b50919050565b7f4552433732313a20617070726f76616c20746f2063757272656e74206f776e6560008201527f7200000000000000000000000000000000000000000000000000000000000000602082015250565b6000612696602183612031565b91506126a18261263a565b604082019050919050565b600060208201905081810360008301526126c581612689565b9050919050565b7f4552433732313a20617070726f76652063616c6c6572206973206e6f7420746f60008201527f6b656e206f776e6572206f7220617070726f76656420666f7220616c6c000000602082015250565b6000612728603d83612031565b9150612733826126cc565b604082019050919050565b600060208201905081810360008301526127578161271b565b9050919050565b7f4552433732313a2063616c6c6572206973206e6f7420746f6b656e206f776e6560008201527f72206f7220617070726f76656400000000000000000000000000000000000000602082015250565b60006127ba602d83612031565b91506127c58261275e565b604082019050919050565b600060208201905081810360008301526127e9816127ad565b9050919050565b7f4f6e6c7920746865206f776e6572206f662074686520746f6b656e2063616e2060008201527f6275726e2069742e000000000000000000000000000000000000000000000000602082015250565b600061284c602883612031565b9150612857826127f0565b604082019050919050565b6000602082019050818103600083015261287b8161283f565b9050919050565b7f4552433732313a20696e76616c696420746f6b656e2049440000000000000000600082015250565b60006128b8601883612031565b91506128c382612882565b602082019050919050565b600060208201905081810360008301526128e7816128ab565b9050919050565b7f4552433732313a2061646472657373207a65726f206973206e6f74206120766160008201527f6c6964206f776e65720000000000000000000000000000000000000000000000602082015250565b600061294a602983612031565b9150612955826128ee565b604082019050919050565b600060208201905081810360008301526129798161293d565b9050919050565b600081905092915050565b600061299682612026565b6129a08185612980565b93506129b0818560208601612042565b80840191505092915050565b60006129c8828561298b565b91506129d4828461298b565b91508190509392505050565b7f4f776e61626c653a206e6577206f776e657220697320746865207a65726f206160008201527f6464726573730000000000000000000000000000000000000000000000000000602082015250565b6000612a3c602683612031565b9150612a47826129e0565b604082019050919050565b60006020820190508181036000830152612a6b81612a2f565b9050919050565b7f4552433732313a207472616e736665722066726f6d20696e636f72726563742060008201527f6f776e6572000000000000000000000000000000000000000000000000000000602082015250565b6000612ace602583612031565b9150612ad982612a72565b604082019050919050565b60006020820190508181036000830152612afd81612ac1565b9050919050565b7f4552433732313a207472616e7366657220746f20746865207a65726f2061646460008201527f7265737300000000000000000000000000000000000000000000000000000000602082015250565b6000612b60602483612031565b9150612b6b82612b04565b604082019050919050565b60006020820190508181036000830152612b8f81612b53565b9050919050565b7f4f776e61626c653a2063616c6c6572206973206e6f7420746865206f776e6572600082015250565b6000612bcc602083612031565b9150612bd782612b96565b602082019050919050565b60006020820190508181036000830152612bfb81612bbf565b9050919050565b7f4552433732313a20617070726f766520746f2063616c6c657200000000000000600082015250565b6000612c38601983612031565b9150612c4382612c02565b602082019050919050565b60006020820190508181036000830152612c6781612c2b565b9050919050565b7f4552433732313a207472616e7366657220746f206e6f6e20455243373231526560008201527f63656976657220696d706c656d656e7465720000000000000000000000000000602082015250565b6000612cca603283612031565b9150612cd582612c6e565b604082019050919050565b60006020820190508181036000830152612cf981612cbd565b9050919050565b7f4552433732313a206d696e7420746f20746865207a65726f2061646472657373600082015250565b6000612d36602083612031565b9150612d4182612d00565b602082019050919050565b60006020820190508181036000830152612d6581612d29565b9050919050565b7f4552433732313a20746f6b656e20616c7265616479206d696e74656400000000600082015250565b6000612da2601c83612031565b9150612dad82612d6c565b602082019050919050565b60006020820190508181036000830152612dd181612d95565b9050919050565b7f45524337323155524953746f726167653a2055524920736574206f66206e6f6e60008201527f6578697374656e7420746f6b656e000000000000000000000000000000000000602082015250565b6000612e34602e83612031565b9150612e3f82612dd8565b604082019050919050565b60006020820190508181036000830152612e6381612e27565b9050919050565b60008190508160005260206000209050919050565b60006020601f8301049050919050565b600082821b905092915050565b600060088302612ecc7fffffffffffffffffffffffffffffffffffffffffffffffffffffffffffffffff82612e8f565b612ed68683612e8f565b95508019841693508086168417925050509392505050565b6000819050919050565b6000612f13612f0e612f0984611f23565b612eee565b611f23565b9050919050565b6000819050919050565b612f2d83612ef8565b612f41612f3982612f1a565b848454612e9c565b825550505050565b600090565b612f56612f49565b612f61818484612f24565b505050565b5b81811015612f8557612f7a600082612f4e565b600181019050612f67565b5050565b601f821115612fca57612f9b81612e6a565b612fa484612e7f565b81016020851015612fb3578190505b612fc7612fbf85612e7f565b830182612f66565b50505b505050565b600082821c905092915050565b6000612fed60001984600802612fcf565b1980831691505092915050565b60006130068383612fdc565b9150826002028217905092915050565b61301f82612026565b67ffffffffffffffff811115613038576130376122ef565b5b6130428254612609565b61304d828285612f89565b600060209050601f831160018114613080576000841561306e578287015190505b6130788582612ffa565b8655506130e0565b601f19841661308e86612e6a565b60005b828110156130b657848901518255600182019150602085019450602081019050613091565b868310156130d357848901516130cf601f891682612fdc565b8355505b6001600288020188555050505b505050505050565b7f4e487b7100000000000000000000000000000000000000000000000000000000600052601160045260246000fd5b600061312282611f23565b915061312d83611f23565b9250828203905081811115613145576131446130e8565b5b92915050565b600061315682611f23565b915061316183611f23565b9250828201905080821115613179576131786130e8565b5b92915050565b600081519050919050565b600082825260208201905092915050565b60006131a68261317f565b6131b0818561318a565b93506131c0818560208601612042565b6131c98161206c565b840191505092915050565b60006080820190506131e96000830187612163565b6131f66020830186612163565b6132036040830185611f2d565b8181036060830152613215818461319b565b905095945050505050565b60008151905061322f81611f97565b92915050565b60006020828403121561324b5761324a611f61565b5b600061325984828501613220565b91505092915050565b7f4e487b7100000000000000000000000000000000000000000000000000000000600052601260045260246000fdfea26469706673582212201574d6e88deb14ac9d8792a3197f4a71e0b29e4dfee1d1afd0eddda3d6b4238c64736f6c63430008110033",
  "linkReferences": {},
  "deployedLinkReferences": {}
}